:100000000C9434000C9446000C9446000C9446006A
:100010000C9446000C9446000C9446000C94460048
:100020000C9446000C9446000C9446000C94460038
:100030000C9446000C9446000C9446000C94460028
:100040000C9446000C9446000C9446000C94460018
:100050000C9446000C9446000C9446000C94460008
:100060000C9446000C94460011241FBECFEFD8E03C
:10007000DEBFCDBF21E0A0E0B1E001C01D92A730FE
:10008000B207E1F70E94B2050C945B060C940000E5
:1000900029982A988EBD0DB407FEFDCF6EBD0DB414
:1000A00007FEFDCF2A9A0895299A2A988EBD0DB48D
:1000B00007FEFDCF6EBD0DB407FEFDCF2A9A089551
:1000C000CF93DF93D62FC72F682F892F0E94480028
:1000D0006D2F8C2F0E945400DF91CF910895FC0169
:1000E000909100019230D1F0933081F1913009F07C
:1000F00040C080910501909106010197DB012D918F
:100100003C911197821B930B11969C938E932081A7
:100110003181918380832D933C93089580910301D5
:1001200090910401019720813181821B930B91836F
:10013000808380910501909106010197FB01208148
:100140003181821B930B91838083089580910301F9
:1001500090910401019720813181821B930B91833F
:100160008083DB012D913C911197318320838D9306
:100170009C930895CF93DF93CDB7DEB728970FB642
:10018000F894DEBF0FBECDBF9A8389837C836B83D7
:100190005E834D8338872F83BE016D5F7F4FCE0115
:1001A00001960E946F00BE01695F7F4FCE010596E8
:1001B0000E946F002D813E8189819A81281739071D
:1001C00020F43A8329839E838D832F8138858B8108
:1001D0009C812817390720F43C832B8398878F83D1
:1001E0006D817E8186E390E00E94600069817A8162
:1001F00087E390E00E9460006F81788588E390E05B
:100200000E9460006B817C8189E390E00E94600025
:1002100069817A8180E290E00E9460006B817C813C
:1002200081E290E00E94600062E280E00E9448006B
:1002300028960FB6F894DEBF0FBECDBFDF91CF91E9
:100240000895882311F05B9A08955B980895837050
:1002500080930001813099F028F08230E9F08330FA
:1002600041F1089580EB90E09093040180930301A5
:100270008CED90E0909306018093050108958CED3C
:1002800090E0909304018093030180EB90E09093C1
:10029000060180930501089580EB90E0909304019E
:1002A000809303018CED90E090930601809305010B
:1002B00008958CED90E0909304018093030180EB0E
:1002C00090E090930601809305010895AF92BF924C
:1002D000CF92DF92EF92FF920F931F93CF93DF9312
:1002E0005C016B017A01E9010E94BA008FEFE81A04
:1002F000F80AEA18FB082196CE018C199D09E89EA0
:10030000E001E99ED00DF89ED00D1124209731F028
:10031000602F812F0E9454002197D1F7DF91CF9158
:100320001F910F91FF90EF90DF90CF90BF90AF9013
:1003300008950F931F93CF93C091000180E00E9416
:10034000270120910501309106012150310940918A
:100350000301509104014150510900E010E060E0B8
:1003600070E080E090E00E9466018C2F0E942701DF
:100370008FE295E70197F1F700C00000CF911F9140
:100380000F910895219A229A539A259A239A5B9A5B
:100390008CB580658CBD8DB581608DBD1EBC60E067
:1003A00070E080E190E00E94600060E070E081E138
:1003B00090E00E94600060E070E082E190E00E94C6
:1003C000600060E070E083E190E00E94600060E027
:1003D00070E084E190E00E9460002FEF86E791E0FA
:1003E000215080409040E1F700C0000068E170E0DB
:1003F00081E190E00E94600061E271E682E190E0BC
:100400000E9460006FE670E083E190E00E9460006F
:100410006FE579E484E190E00E94600060E078E0BC
:1004200080E190E00E9460008FE295E70197F1F78C
:1004300000C000006BE370E181E190E00E94600089
:100440009FEB24ED81E0915020408040E1F700C017
:1004500000006CE171E081E090E00E94600060E0EB
:1004600071E082E090E00E94600060E370E183E070
:1004700090E00E94600060E070E087E090E00E9401
:10048000600068E078E088E090E00E94600060E052
:1004900071E18BE090E00E94600060E070E08CE031
:1004A00090E00E94600061E07DE08FE090E00E94BB
:1004B000600060E270E085E190E00E94600060E032
:1004C00070E080E290E00E94600060E070E081E215
:1004D00090E00E94600060E070E080E390E00E94A5
:1004E00060006BED70E081E390E00E94600060E0EE
:1004F00070E082E390E00E94600060E070E083E3DF
:1005000090E00E9460006BED70E084E390E00E9458
:10051000600060E070E085E390E00E9460006FEAB8
:1005200070E086E390E00E94600060E070E087E3A6
:1005300090E00E9460006BED70E088E390E00E9424
:10054000600060E070E089E390E00E94600060E09D
:1005500070E080E590E00E94600068E078E081E56E
:1005600090E00E9460006AE078E082E590E00E94FE
:1005700060006AE070E083E590E00E94600068E05F
:100580007AE084E590E00E94600068E078E085E52C
:1005900090E00E94600060E070E086E590E00E94DC
:1005A000600060E07AE087E590E00E94600060E132
:1005B00077E088E590E00E94600060E177E089E5FF
:1005C00090E00E94600062E170E087E090E00E94AD
:1005D00060009FEB24ED81E0915020408040E1F7E6
:1005E00000C0000067E170E187E090E00E946000D9
:1005F00081E00E94210180E00E9427011092020107
:10060000109201010E94990108950F931F93CF93B7
:10061000DF9300D000D0CDB7DEB79A8389837C8387
:100620006B83209103013091040182179307E0F45A
:10063000209105013091060162177307A8F4152F68
:10064000042F9B012F5F3F4FAC014F5F5F4F0E9414
:10065000BA00BE016D5F7F4FCE0101960E946F0010
:10066000602F812F0E9454000F900F900F900F90D9
:10067000DF91CF911F910F9108952F923F924F924A
:100680005F926F927F928F929F92AF92BF92CF9222
:10069000DF92EF92FF920F931F93CF93DF9300D0DF
:1006A00000D000D0CDB7DEB76C014B015A013C83BE
:1006B0002B8381E090E07C01E41AF50A22243324A4
:1006C000241A350A220C331C8A01BA01680D791DDF
:1006D000A901C6010E940503B4016A197B094B8177
:1006E0005C81C6010E9405034B815C81B401C50198
:1006F0008C0D9D1D0E9405034B815C81B401C601D8
:100700008A199B090E9405031A141B040CF075C07A
:100710001E821D8266246394712CFF203CF00150E0
:10072000110982E0280E311CE20CF31CED81FE81E0
:100730003196FE83ED83F2E06F0E711CE60CF71C20
:10074000AD80BE80AC0CBD1C4B815C81C801880DA6
:10075000991D9A838983BC01C5010E940503260166
:10076000ED81FE814E1A5F0A4B815C8169817A813D
:10077000C2010E9405034B815C81C401801B910B67
:100780009A838983BC01C5010E9405034B815C816A
:1007900069817A81C2010E940503AD80BE80A80CE8
:1007A000B91C4B815C81B50128014C0C5D1CC20158
:1007B0000E9405034B815C81B501F601E01BF10B42
:1007C000FA83E983CF010E94050354018D819E8144
:1007D000A81AB90A4B815C81B501C2010E940503C8
:1007E0004B815C81B50189819A810E940503ED816D
:1007F000FE81E017F1070CF490CF26960FB6F8941F
:10080000DEBF0FBECDBFDF91CF911F910F91FF9043
:10081000EF90DF90CF90BF90AF909F908F907F90A0
:100820006F905F904F903F902F9008952F923F923E
:100830004F925F926F927F928F929F92AF92BF92F0
:10084000CF92DF92EF92FF920F931F93CF93DF939C
:10085000EC017B016A011801C901861B970BAC01F1
:1008600022F444275527481B590BB6016C1B7D0BFE
:10087000CB01992324F488279927861B970B71E0D5
:1008800060E0841795070CF070E0A72EB62EA11437
:10089000B10451F09C2D8D2D6901292F382F9C2FEB
:1008A0008D2FE701E92EF82ECC16DD0678F59E2D6A
:1008B0008F2D7901292F382F9C2F8D2FE601C92EDE
:1008C000D82E24C0CC16DD06C8F166246A94762C96
:1008D00003C066246394712CA114B10431F0A1010A
:1008E000BE01C7010E94050305C0A101B701CE01E9
:1008F0000E940503801A910A22F4E60CF71C840C6E
:10090000951C2196CC16DD0638F718C026014C1A26
:100910005D0AC9018E199F098C0122F40027112755
:10092000081B190B420155201CF48FEF881A980AF6
:1009300095948794E216F30660F2C4CFDF91CF91CD
:100940001F910F91FF90EF90DF90CF90BF90AF90ED
:100950009F908F907F906F905F904F903F902F90DF
:1009600008958F929F92AF92BF92CF92DF92EF92B3
:10097000FF920F931F93CF93DF934C017B01EA010A
:100980006901AC010E9416049701AE01B701C401D0
:100990000E9416049601AE01B601C4010E9416041D
:1009A0009601AE01B701CE010E941604DF91CF91EE
:1009B0001F910F91FF90EF90DF90CF90BF90AF907D
:1009C0009F908F9008952F923F924F925F926F92D7
:1009D0007F928F929F92AF92BF92CF92DF92EF92CF
:1009E000FF920F931F93CF93DF93CDB7DEB7289776
:1009F0000FB6F894DEBF0FBECDBF8D836E833A83F2
:100A00002983E42EF12C81E090E06C01CE18DF0800
:100A1000882799278E199F099C01220F331F3C8339
:100A20002B831E141F040CF064C0A12CB12C66246F
:100A30006394712C3D81432E512C262E312CB88687
:100A4000AF82DD2054F081E0E81AF108EB81FC81EF
:100A50003296FC83EB83CE0EDF1E2F8138852F5F0D
:100A60003F4F38872F8332E0630E711CC60CD71CB2
:100A700042018F819885881A990A5C01A40CB51CE3
:100A800009811A81B1016E0D7F1D9B01A401C50171
:100A90000E94160409811A81B1016E197F099B0118
:100AA000A401C5010E9416048F809884820C931CB7
:100AB0005101EF81F885AE1ABF0A09811A819401AC
:100AC000C701840D951DAC01B5010E941604098172
:100AD0001A819401C2018E199F09AC01B5010E94CF
:100AE00016042F8138852E153F050CF4AACF590125
:100AF00002C0A12CB12C3E81632F70E0ED818E2FBE
:100B000090E09B012E0D3F1DAC014A0D5B1D6E193F
:100B10007F0909811A818A199B090E94660128961A
:100B20000FB6F894DEBF0FBECDBFDF91CF911F91FE
:100B30000F91FF90EF90DF90CF90BF90AF909F907C
:100B40008F907F906F905F904F903F902F9008957F
:100B50008091030190910401089580910501909185
:100B6000060108950E94C2010E94AD05EC010E9499
:100B7000A8059E0136952795AC01569547950FE13E
:100B800010E060E070E080E090E00E94B1042FEFA0
:100B90008EE994E2215080409040E1F700C00000CF
:100BA0000E94AD058C010E94A805EC010E94AD05D4
:100BB0007C010E94A805980136952795AE015695AF
:100BC000479500E018EFB7010E94B1042FEF8EE9BE
:100BD00094E2215080409040E1F700C000000FE116
:100BE00010E02EE630E04EE650E06AE070E08AE089
:100BF00090E00E94B1042FEF8EE994E221508040F2
:100C00009040E1F700C0000000E018EF28E730E076
:100C100048E750E064E170E084E190E00E94660102
:100C20002FEF8EE994E2215080409040E1F700C020
:100C3000000020EE3FEF42E350E060E570E080E529
:100C400090E00E943D032FEF8EE994E22150804016
:100C50009040E1F700C0000020EE37E04EE16AE589
:100C60008AE50E94E3042FEF8EE994E22150804050
:100C70009040E1F700C000000E94AD05EC010E9429
:100C8000A8059E0121503109AC01415051090FEFD7
:100C900017E060E070E080E090E00E9416042FEF23
:100CA0008EE994E2215080409040E1F700C00000BE
:0A0CB0000E94990159CFF894FFCF7C
:00000001FF
